:100000000C9446000C9465000C9465000C946500FB
:100010000C9465000C9465000C9465000C946500CC
:100020000C9465000C9465000C9465000C946500BC
:100030000C9465000C94B1020C9465000C9465005E
:100040000C9465000C9465000C9465000C9465009C
:100050000C9465000C9465000C9465000C9465008C
:100060000C9465000C9465000C9465000C9465007C
:100070000C9465000C9465000C9465000C9465006C
:100080000C9465000C9465000C94650011241FBE4F
:10009000CFEFD0E4DEBFCDBF11E0A0E0B1E0ECECEB
:1000A000F7E000E00BBF02C007900D92A23FB1073E
:1000B000D9F712E0A2EFB1E001C01D92A830B1075C
:1000C000E1F70E942D030C94E4030C9400004423F8
:1000D00051F041E050E09A0102C0220F331F6A95AF
:1000E000E2F7822B089521E030E0A90102C0440F1D
:1000F000551F6A95E2F7BA0160958623089590E04E
:1001000002C0959587956A95E2F781700895AC01D4
:100110001816190654F0089500000197E9F72F5FAB
:100120003F4F2417350729F4089520E030E067E0B9
:1001300073E0CB01F1CF169A8BB9179A000017988C
:1001400081E090E00E948700089516988BB9179A75
:100150000000179882E090E00E94870008958131A6
:1001600020F481580E94A500089581550E94A500A1
:10017000089581E00E94A5000895FF920F931F93B8
:10018000CF93DF93F82EEB010E94B900888188237A
:1001900091F08E010F5F1F4F8F2D01C08F2DF82E14
:1001A000F3940E94AF0089910E949B00F801819115
:1001B0008F01882399F7DF91CF911F910F91FF90C5
:1001C000089584E690E00E94870088E30E94A500DD
:1001D00086E00E94A5008FE00E94A50081E00E94B9
:1001E000A5008AE090E00E948700089520B1322F98
:1001F000317020B12095422F447020B12095522FAC
:10020000587020B12095622F60712FEF27B984308C
:100210009105A9F18530910594F48130910519F18A
:100220008230910524F4009709F450C047C0823011
:100230009105E9F08330910509F040C01CC087307A
:10024000910579F1883091053CF48530910509F1EB
:100250008630910599F521C08830910531F18930BA
:10026000910561F528C0332309F46BC02FC03323F7
:1002700009F467C06CC0442309F478C068C0442303
:1002800009F07CC0552309F09BC0662309F0BAC071
:100290006DC0442309F072C0D7C0552309F090C047
:1002A000D3C0662309F0AEC0CFC08091D6018823A9
:1002B00009F4EEC0C9C0332309F4EAC01092F20178
:1002C00083E08093D60180E090E008958091F20170
:1002D000882351F40E94E10081E060E071E00E9417
:1002E000BD0081E090E008950E94B90081E061E1E5
:1002F00071E00E94BD008091F201805D0E949B0030
:100300008FEF9EE9A4E281509040A040E1F700C049
:1003100000000E94B90081E061E271E00E94BD002E
:100320008091F201805D0E949B008FEF9EE9A4E224
:1003300081509040A040E1F700C0000081E090E0D3
:1003400008958FE388B985B982E090E008950E940E
:10035000B90081E061E471E00E94BD001092F201F9
:1003600083E08093D60183E090E0089587E085B92B
:100370008091EC0188B984E090E0089581E085B92E
:100380008091EB0188B90E94B90081E062E571E0DB
:100390000E94BD008FEF9EE9A4E281509040A040F2
:1003A000E1F700C000008091F2018F5F8093F201BD
:1003B0008091D60181508093D60188E090E0089525
:1003C00082E085B98091EA0188B90E94B90081E094
:1003D00063E671E00E94BD008FEF9EE9A4E28150C8
:1003E0009040A040E1F700C000008091F2018E5FD4
:1003F0008093F2018091D60181508093D60188E0EC
:1004000090E0089584E085B98091E90188B90E945F
:10041000B90081E064E771E00E94BD008FEF9EE9C2
:10042000A4E281509040A040E1F700C0000080911C
:10043000F2018D5F8093F2018091D601815080930B
:10044000D60188E090E008950E94B90081E065E857
:1004500071E00E94BD008091D601805D0E949B00EA
:100460008FE79EEEA6E381509040A040E1F700C0E8
:1004700000000E94B90081E065E971E00E94BD00C2
:100480008091F201805D0E949B0084E090E00895DD
:100490008FE388B985B90E94B90081E061E171E01C
:1004A0000E94BD008091F201805D0E949B008FEF51
:1004B00093EDA0E381509040A040E1F700C0000020
:1004C0000E94B90081E065EB71E00E94BD008FEFF2
:1004D00093EDA0E381509040A040E1F700C0000000
:1004E00080E090E00895DC01CB018093ED019093D2
:1004F000EE01A093EF01B093F0018093F801909387
:10050000F901A093FA01B093FB0108958BE0809369
:1005100081008DE790E0909389008093880082E0CD
:1005200080936F0010928500109284008091ED01FD
:100530009091EE01A091EF01B091F0018093F8014C
:100540009093F901A093FA01B093FB018FB78068F3
:100550008FBF089510928100089581E08093FC017F
:1005600008951F920F920FB60F920BB60F9211249F
:100570002F933F934F935F936F937F938F939F93AB
:10058000AF93BF93EF93FF938091F8019091F9019E
:10059000A091FA01B091FB010197A109B1098093E3
:1005A000F8019093F901A093FA01B093FB01009731
:1005B000A105B10591F40E94AD028091ED019091E9
:1005C000EE01A091EF01B091F0018093F8019093BA
:1005D000F901A093FA01B093FB01FF91EF91BF9154
:1005E000AF919F918F917F916F915F914F913F91CB
:1005F0002F910F900BBE0F900FBE0F901F9018956C
:100600000F931F93CF93DF93F62FE72F022F132F14
:10061000D42FC52F04C00B2F1A2FD32FC22F6F2F0B
:100620007E2F202F312F4D2F5C2F0E94C203AB0154
:10063000BC01F02FE12F8D2F9C2FB42FA52F362F2B
:10064000272F411551056105710529F7602F712F7D
:10065000DF91CF911F910F91089580EC81B98FE3C5
:1006600082B9CFEFCAB91BB86AE070E080E090E0D1
:1006700021E030E040E050E00E9400036B017C018B
:100680006AE070E080E090E0A70196010E94C2035A
:100690008DEF91E0C093FD01FC0131962093FE01A6
:1006A000318342835383FC013596209302023183C8
:1006B0004283538386EF90E0909307028093060273
:1006C000C701B6010E9473020E94860280E090E09A
:1006D00000E010E0C2E0D2E00F2EFCEFEF2EFFEFC3
:1006E000FF2EF02DEC0EFD1ECC24DD24C3940F2E26
:1006F000F6E08F2EF2E09F2EF02D0F2EF7EFAF2EAB
:10070000FFEFBF2EF02DA80CB91C0F2EF5E06F2EB9
:100710007724F02D6A0C7B1C2BC088819981AA81DB
:10072000BB81F701408151816281738184179507F4
:10073000A607B70789F4D5018C91D401ED91FC91FE
:10074000992787FD90950995F5018083D3011D9226
:100750001D921D921C92139788819981AA81BB8159
:100760000196A11DB11D88839983AA83BB83C6010D
:10077000009799F28091FC018823E1F31092FC012B
:10078000C801F6CFA1E21A2EAA1BBB1BFD010DC0AA
:10079000AA1FBB1FEE1FFF1FA217B307E407F50731
:1007A00020F0A21BB30BE40BF50B661F771F881F0D
:1007B000991F1A9469F760957095809590959B01A3
:0C07C000AC01BD01CF010895F894FFCFFB
:1007CC007E20496E73657274206120436F696E21BF
:1007DC00002046696E616C2053636F72653A20206D
:1007EC00007E20496E73657274206120436F696EC0
:1007FC002120204C6173742053636F72653A202062
:10080C000044726F70207468652062616C6C2E2ECF
:10081C002E00596F7520476F74203120506F696E10
:10082C00742000596F7520476F74203220506F6907
:10083C006E747300596F7520476F74203320506F9E
:10084C00696E74730020204C69766573206C656644
:10085C00743A20200044726F702062616C6C2061CD
:10086C006761696E20596F75722053636F726520D2
:10087C0069733A200020202147616D6520204F7656
:10088C00657221202020496E7365727420612043AB
:10089C006F696E21200003FE3FF740F9A430999256
:1008AC0002F8009090F802929930A4F940010000EF
:0208BC0000003A
:00000001FF
